{"abi":[{"type":"function","name":"getAllWebsiteUrls","inputs":[],"outputs":[{"name":"","type":"string[]","internalType":"string[]"}],"stateMutability":"view"},{"type":"function","name":"getAllWebsites","inputs":[],"outputs":[{"name":"","type":"tuple[]","internalType":"struct WebsiteRegistry.Website[]","components":[{"name":"url","type":"string","internalType":"string"},{"name":"owner","type":"address","internalType":"address"},{"name":"paywall","type":"uint256","internalType":"uint256"}]}],"stateMutability":"view"},{"type":"function","name":"getTotalWebsiteCount","inputs":[],"outputs":[{"name":"","type":"uint256","internalType":"uint256"}],"stateMutability":"view"},{"type":"function","name":"getWebsite","inputs":[{"name":"_websiteUrl","type":"string","internalType":"string"}],"outputs":[{"name":"","type":"tuple","internalType":"struct WebsiteRegistry.Website","components":[{"name":"url","type":"string","internalType":"string"},{"name":"owner","type":"address","internalType":"address"},{"name":"paywall","type":"uint256","internalType":"uint256"}]}],"stateMutability":"view"},{"type":"function","name":"getWebsiteCount","inputs":[{"name":"_websiteOwner","type":"address","internalType":"address"}],"outputs":[{"name":"","type":"uint256","internalType":"uint256"}],"stateMutability":"view"},{"type":"function","name":"getWebsiteOwner","inputs":[{"name":"_websiteUrl","type":"string","internalType":"string"}],"outputs":[{"name":"","type":"address","internalType":"address"}],"stateMutability":"view"},{"type":"function","name":"getWebsitePaywall","inputs":[{"name":"_websiteUrl","type":"string","internalType":"string"}],"outputs":[{"name":"","type":"uint256","internalType":"uint256"}],"stateMutability":"view"},{"type":"function","name":"getWebsiteUrls","inputs":[{"name":"_websiteOwner","type":"address","internalType":"address"}],"outputs":[{"name":"","type":"string[]","internalType":"string[]"}],"stateMutability":"view"},{"type":"function","name":"getWebsites","inputs":[{"name":"_websiteOwner","type":"address","internalType":"address"}],"outputs":[{"name":"","type":"tuple[]","internalType":"struct WebsiteRegistry.Website[]","components":[{"name":"url","type":"string","internalType":"string"},{"name":"owner","type":"address","internalType":"address"},{"name":"paywall","type":"uint256","internalType":"uint256"}]}],"stateMutability":"view"},{"type":"function","name":"getWebsitesByPaywallRange","inputs":[{"name":"_minPaywall","type":"uint256","internalType":"uint256"},{"name":"_maxPaywall","type":"uint256","internalType":"uint256"}],"outputs":[{"name":"","type":"tuple[]","internalType":"struct WebsiteRegistry.Website[]","components":[{"name":"url","type":"string","internalType":"string"},{"name":"owner","type":"address","internalType":"address"},{"name":"paywall","type":"uint256","internalType":"uint256"}]}],"stateMutability":"view"},{"type":"function","name":"hasWebsite","inputs":[{"name":"_websiteOwner","type":"address","internalType":"address"},{"name":"_websiteUrl","type":"string","internalType":"string"}],"outputs":[{"name":"","type":"bool","internalType":"bool"}],"stateMutability":"view"},{"type":"function","name":"isWebsiteRegistered","inputs":[{"name":"_websiteUrl","type":"string","internalType":"string"}],"outputs":[{"name":"","type":"bool","internalType":"bool"}],"stateMutability":"view"},{"type":"function","name":"registerWebsite","inputs":[{"name":"_websiteUrl","type":"string","internalType":"string"},{"name":"_websiteOwner","type":"address","internalType":"address"},{"name":"_paywall","type":"uint256","internalType":"uint256"}],"outputs":[],"stateMutability":"nonpayable"},{"type":"function","name":"removeWebsite","inputs":[{"name":"_websiteUrl","type":"string","internalType":"string"}],"outputs":[],"stateMutability":"nonpayable"},{"type":"function","name":"updatePaywall","inputs":[{"name":"_websiteUrl","type":"string","internalType":"string"},{"name":"_newPaywall","type":"uint256","internalType":"uint256"}],"outputs":[],"stateMutability":"nonpayable"},{"type":"function","name":"websiteRegistry","inputs":[{"name":"","type":"string","internalType":"string"}],"outputs":[{"name":"url","type":"string","internalType":"string"},{"name":"owner","type":"address","internalType":"address"},{"name":"paywall","type":"uint256","internalType":"uint256"}],"stateMutability":"view"},{"type":"event","name":"PaywallUpdated","inputs":[{"name":"websiteOwner","type":"address","indexed":true,"internalType":"address"},{"name":"websiteUrl","type":"string","indexed":false,"internalType":"string"},{"name":"newPaywall","type":"uint256","indexed":false,"internalType":"uint256"}],"anonymous":false},{"type":"event","name":"WebsiteRegistered","inputs":[{"name":"websiteOwner","type":"address","indexed":true,"internalType":"address"},{"name":"websiteUrl","type":"string","indexed":false,"internalType":"string"},{"name":"paywall","type":"uint256","indexed":false,"internalType":"uint256"}],"anonymous":false},{"type":"event","name":"WebsiteRemoved","inputs":[{"name":"websiteOwner","type":"address","indexed":true,"internalType":"address"},{"name":"websiteUrl","type":"string","indexed":false,"internalType":"string"}],"anonymous":false}],"bytecode":{"object":"0x6080604052348015600e575f5ffd5b506129e48061001c5f395ff3fe608060405234801561000f575f5ffd5b50600436106100fe575f3560e01c806391fc3c1e11610095578063cda20d9411610064578063cda20d941461030a578063dadd53da1461033a578063dfcf688114610356578063e974cd4714610374576100fe565b806391fc3c1e1461025c5780639e8c58301461028c578063b4ed40a5146102bc578063c2e00022146102ec576100fe565b806362eef9e7116100d157806362eef9e7146101ae5780636728e896146101de57806374edc6341461021057806376a5e7451461022c576100fe565b806304de43d5146101025780631f9528c21461013257806325eda8dc1461016257806352dc726e14610192575b5f5ffd5b61011c60048036038101906101179190611aa7565b610392565b6040516101299190611c71565b60405180910390f35b61014c60048036038101906101479190611dbd565b61066b565b6040516101599190611e31565b60405180910390f35b61017c60048036038101906101779190611aa7565b610718565b6040516101899190611e59565b60405180910390f35b6101ac60048036038101906101a79190611e9c565b610761565b005b6101c860048036038101906101c39190611f08565b61097c565b6040516101d59190611e31565b60405180910390f35b6101f860048036038101906101f39190611f08565b6109b2565b60405161020793929190611fa6565b60405180910390f35b61022a60048036038101906102259190611f08565b610a94565b005b61024660048036038101906102419190611aa7565b610ec6565b604051610253919061209d565b60405180910390f35b61027660048036038101906102719190611f08565b610fd7565b60405161028391906120bd565b60405180910390f35b6102a660048036038101906102a191906120d6565b61101f565b6040516102b39190611c71565b60405180910390f35b6102d660048036038101906102d19190611f08565b6113ad565b6040516102e39190612161565b60405180910390f35b6102f461153f565b6040516103019190611e59565b60405180910390f35b610324600480360381019061031f9190611f08565b61154b565b6040516103319190611e59565b60405180910390f35b610354600480360381019061034f9190612181565b611574565b005b61035e611707565b60405161036b919061209d565b60405180910390f35b61037c6117db565b6040516103899190611c71565b60405180910390f35b60605f60015f8473ffffffffffffffffffffffffffffffffffffffff1673ffffffffffffffffffffffffffffffffffffffff1681526020019081526020015f20805480602002602001604051908101604052809291908181526020015f905b82821015610499578382905f5260205f2001805461040e90612208565b80601f016020809104026020016040519081016040528092919081815260200182805461043a90612208565b80156104855780601f1061045c57610100808354040283529160200191610485565b820191905f5260205f20905b81548152906001019060200180831161046857829003601f168201915b5050505050815260200190600101906103f1565b5050505090505f815167ffffffffffffffff8111156104bb576104ba611c99565b5b6040519080825280602002602001820160405280156104f457816020015b6104e16119af565b8152602001906001900390816104d95790505b5090505f5f90505b8251811015610660575f83828151811061051957610518612238565b5b602002602001015160405161052e919061229f565b90815260200160405180910390206040518060600160405290815f8201805461055690612208565b80601f016020809104026020016040519081016040528092919081815260200182805461058290612208565b80156105cd5780601f106105a4576101008083540402835291602001916105cd565b820191905f5260205f20905b8154815290600101906020018083116105b057829003601f168201915b50505050508152602001600182015f9054906101000a900473ffffffffffffffffffffffffffffffffffffffff1673ffffffffffffffffffffffffffffffffffffffff1673ffffffffffffffffffffffffffffffffffffffff16815260200160028201548152505082828151811061064857610647612238565b5b602002602001018190525080806001019150506104fc565b508092505050919050565b5f8273ffffffffffffffffffffffffffffffffffffffff165f83604051610692919061229f565b90815260200160405180910390206001015f9054906101000a900473ffffffffffffffffffffffffffffffffffffffff1673ffffffffffffffffffffffffffffffffffffffff1614801561071057505f5f836040516106f1919061229f565b90815260200160405180910390205f01805461070c90612208565b9050115b905092915050565b5f60015f8373ffffffffffffffffffffffffffffffffffffffff1673ffffffffffffffffffffffffffffffffffffffff1681526020019081526020015f20805490509050919050565b5f5f84604051610771919061229f565b90815260200160405180910390205f01805461078c90612208565b9050146107ce576040517f08c379a00000000000000000000000000000000000000000000000000000000081526004016107c5906122ff565b60405180910390fd5b5f60405180606001604052808581526020018473ffffffffffffffffffffffffffffffffffffffff168152602001838152509050805f85604051610812919061229f565b90815260200160405180910390205f820151815f01908161083391906124bd565b506020820151816001015f6101000a81548173ffffffffffffffffffffffffffffffffffffffff021916908373ffffffffffffffffffffffffffffffffffffffff1602179055506040820151816002015590505060015f8473ffffffffffffffffffffffffffffffffffffffff1673ffffffffffffffffffffffffffffffffffffffff1681526020019081526020015f2084908060018154018082558091505060019003905f5260205f20015f9091909190915090816108f391906124bd565b50600284908060018154018082558091505060019003905f5260205f20015f90919091909150908161092591906124bd565b508273ffffffffffffffffffffffffffffffffffffffff167f194097f583c18c7d85ec9d72f72d16d451565fac2bff8b43961b001e5d14a14f858460405161096e92919061258c565b60405180910390a250505050565b5f5f5f8360405161098d919061229f565b90815260200160405180910390205f0180546109a890612208565b9050119050919050565b5f818051602081018201805184825260208301602085012081835280955050505050505f91509050805f0180546109e890612208565b80601f0160208091040260200160405190810160405280929190818152602001828054610a1490612208565b8015610a5f5780601f10610a3657610100808354040283529160200191610a5f565b820191905f5260205f20905b815481529060010190602001808311610a4257829003601f168201915b505050505090806001015f9054906101000a900473ffffffffffffffffffffffffffffffffffffffff16908060020154905083565b5f5f82604051610aa4919061229f565b90815260200160405180910390205f018054610abf90612208565b905011610b01576040517f08c379a0000000000000000000000000000000000000000000000000000000008152600401610af890612604565b60405180910390fd5b5f5f82604051610b11919061229f565b90815260200160405180910390206001015f9054906101000a900473ffffffffffffffffffffffffffffffffffffffff1690503373ffffffffffffffffffffffffffffffffffffffff168173ffffffffffffffffffffffffffffffffffffffff1614610bb2576040517f08c379a0000000000000000000000000000000000000000000000000000000008152600401610ba99061266c565b60405180910390fd5b5f82604051610bc1919061229f565b90815260200160405180910390205f5f82015f610bde91906119e4565b600182015f6101000a81549073ffffffffffffffffffffffffffffffffffffffff0219169055600282015f905550505f60015f8373ffffffffffffffffffffffffffffffffffffffff1673ffffffffffffffffffffffffffffffffffffffff1681526020019081526020015f2090505f5f90505b8180549050811015610d5c5783604051602001610c6f919061229f565b60405160208183030381529060405280519060200120828281548110610c9857610c97612238565b5b905f5260205f2001604051602001610cb0919061270a565b6040516020818303038152906040528051906020012003610d4f578160018380549050610cdd919061274d565b81548110610cee57610ced612238565b5b905f5260205f2001828281548110610d0957610d08612238565b5b905f5260205f20019081610d1d91906127a7565b5081805480610d2f57610d2e61288c565b5b600190038181905f5260205f20015f610d4891906119e4565b9055610d5c565b8080600101915050610c52565b505f5f90505b600280549050811015610e725783604051602001610d80919061229f565b6040516020818303038152906040528051906020012060028281548110610daa57610da9612238565b5b905f5260205f2001604051602001610dc2919061270a565b6040516020818303038152906040528051906020012003610e655760026001600280549050610df1919061274d565b81548110610e0257610e01612238565b5b905f5260205f200160028281548110610e1e57610e1d612238565b5b905f5260205f20019081610e3291906127a7565b506002805480610e4557610e4461288c565b5b600190038181905f5260205f20015f610e5e91906119e4565b9055610e72565b8080600101915050610d62565b508173ffffffffffffffffffffffffffffffffffffffff167f48af78eff57b5d1eb50cbaeab7b298292ee954d8d9407b0e45ac223934aefc2784604051610eb991906128b9565b60405180910390a2505050565b606060015f8373ffffffffffffffffffffffffffffffffffffffff1673ffffffffffffffffffffffffffffffffffffffff1681526020019081526020015f20805480602002602001604051908101604052809291908181526020015f905b82821015610fcc578382905f5260205f20018054610f4190612208565b80601f0160208091040260200160405190810160405280929190818152602001828054610f6d90612208565b8015610fb85780601f10610f8f57610100808354040283529160200191610fb8565b820191905f5260205f20905b815481529060010190602001808311610f9b57829003601f168201915b505050505081526020019060010190610f24565b505050509050919050565b5f5f82604051610fe7919061229f565b90815260200160405180910390206001015f9054906101000a900473ffffffffffffffffffffffffffffffffffffffff169050919050565b60605f5f90505f5f90505b6002805490508110156111a5575f5f6002838154811061104d5761104c612238565b5b905f5260205f2001604051611062919061270a565b90815260200160405180910390206040518060600160405290815f8201805461108a90612208565b80601f01602080910402602001604051908101604052809291908181526020018280546110b690612208565b80156111015780601f106110d857610100808354040283529160200191611101565b820191905f5260205f20905b8154815290600101906020018083116110e457829003601f168201915b50505050508152602001600182015f9054906101000a900473ffffffffffffffffffffffffffffffffffffffff1673ffffffffffffffffffffffffffffffffffffffff1673ffffffffffffffffffffffffffffffffffffffff168152602001600282015481525050905085816040015110158015611183575084816040015111155b15611197578280611193906128d9565b9350505b50808060010191505061102a565b505f8167ffffffffffffffff8111156111c1576111c0611c99565b5b6040519080825280602002602001820160405280156111fa57816020015b6111e76119af565b8152602001906001900390816111df5790505b5090505f5f90505f5f90505b6002805490508110156113a0575f5f6002838154811061122957611228612238565b5b905f5260205f200160405161123e919061270a565b90815260200160405180910390206040518060600160405290815f8201805461126690612208565b80601f016020809104026020016040519081016040528092919081815260200182805461129290612208565b80156112dd5780601f106112b4576101008083540402835291602001916112dd565b820191905f5260205f20905b8154815290600101906020018083116112c057829003601f168201915b50505050508152602001600182015f9054906101000a900473ffffffffffffffffffffffffffffffffffffffff1673ffffffffffffffffffffffffffffffffffffffff1673ffffffffffffffffffffffffffffffffffffffff16815260200160028201548152505090508781604001511015801561135f575086816040015111155b15611392578084848151811061137857611377612238565b5b6020026020010181905250828061138e906128d9565b9350505b508080600101915050611206565b5081935050505092915050565b6113b56119af565b5f5f836040516113c5919061229f565b90815260200160405180910390205f0180546113e090612208565b905011611422576040517f08c379a000000000000000000000000000000000000000000000000000000000815260040161141990612604565b60405180910390fd5b5f82604051611431919061229f565b90815260200160405180910390206040518060600160405290815f8201805461145990612208565b80601f016020809104026020016040519081016040528092919081815260200182805461148590612208565b80156114d05780601f106114a7576101008083540402835291602001916114d0565b820191905f5260205f20905b8154815290600101906020018083116114b357829003601f168201915b50505050508152602001600182015f9054906101000a900473ffffffffffffffffffffffffffffffffffffffff1673ffffffffffffffffffffffffffffffffffffffff1673ffffffffffffffffffffffffffffffffffffffff1681526020016002820154815250509050919050565b5f600280549050905090565b5f5f8260405161155b919061229f565b9081526020016040518091039020600201549050919050565b5f5f83604051611584919061229f565b90815260200160405180910390205f01805461159f90612208565b9050116115e1576040517f08c379a00000000000000000000000000000000000000000000000000000000081526004016115d890612604565b60405180910390fd5b3373ffffffffffffffffffffffffffffffffffffffff165f83604051611607919061229f565b90815260200160405180910390206001015f9054906101000a900473ffffffffffffffffffffffffffffffffffffffff1673ffffffffffffffffffffffffffffffffffffffff161461168e576040517f08c379a000000000000000000000000000000000000000000000000000000000815260040161168590612990565b60405180910390fd5b805f8360405161169e919061229f565b9081526020016040518091039020600201819055503373ffffffffffffffffffffffffffffffffffffffff167f5b8d168df20225352d1db4673838df04766de71ac62735d65a067267800f55a983836040516116fb92919061258c565b60405180910390a25050565b60606002805480602002602001604051908101604052809291908181526020015f905b828210156117d2578382905f5260205f2001805461174790612208565b80601f016020809104026020016040519081016040528092919081815260200182805461177390612208565b80156117be5780601f10611795576101008083540402835291602001916117be565b820191905f5260205f20905b8154815290600101906020018083116117a157829003601f168201915b50505050508152602001906001019061172a565b50505050905090565b60605f60028054905067ffffffffffffffff8111156117fd576117fc611c99565b5b60405190808252806020026020018201604052801561183657816020015b6118236119af565b81526020019060019003908161181b5790505b5090505f5f90505b6002805490508110156119a7575f600282815481106118605761185f612238565b5b905f5260205f2001604051611875919061270a565b90815260200160405180910390206040518060600160405290815f8201805461189d90612208565b80601f01602080910402602001604051908101604052809291908181526020018280546118c990612208565b80156119145780601f106118eb57610100808354040283529160200191611914565b820191905f5260205f20905b8154815290600101906020018083116118f757829003601f168201915b50505050508152602001600182015f9054906101000a900473ffffffffffffffffffffffffffffffffffffffff1673ffffffffffffffffffffffffffffffffffffffff1673ffffffffffffffffffffffffffffffffffffffff16815260200160028201548152505082828151811061198f5761198e612238565b5b6020026020010181905250808060010191505061183e565b508091505090565b6040518060600160405280606081526020015f73ffffffffffffffffffffffffffffffffffffffff1681526020015f81525090565b5080546119f090612208565b5f825580601f10611a015750611a1e565b601f0160209004905f5260205f2090810190611a1d9190611a21565b5b50565b5b80821115611a38575f815f905550600101611a22565b5090565b5f604051905090565b5f5ffd5b5f5ffd5b5f73ffffffffffffffffffffffffffffffffffffffff82169050919050565b5f611a7682611a4d565b9050919050565b611a8681611a6c565b8114611a90575f5ffd5b50565b5f81359050611aa181611a7d565b92915050565b5f60208284031215611abc57611abb611a45565b5b5f611ac984828501611a93565b91505092915050565b5f81519050919050565b5f82825260208201905092915050565b5f819050602082019050919050565b5f81519050919050565b5f82825260208201905092915050565b8281835e5f83830152505050565b5f601f19601f8301169050919050565b5f611b3d82611afb565b611b478185611b05565b9350611b57818560208601611b15565b611b6081611b23565b840191505092915050565b611b7481611a6c565b82525050565b5f819050919050565b611b8c81611b7a565b82525050565b5f606083015f8301518482035f860152611bac8282611b33565b9150506020830151611bc16020860182611b6b565b506040830151611bd46040860182611b83565b508091505092915050565b5f611bea8383611b92565b905092915050565b5f602082019050919050565b5f611c0882611ad2565b611c128185611adc565b935083602082028501611c2485611aec565b805f5b85811015611c5f5784840389528151611c408582611bdf565b9450611c4b83611bf2565b925060208a01995050600181019050611c27565b50829750879550505050505092915050565b5f6020820190508181035f830152611c898184611bfe565b905092915050565b5f5ffd5b5f5ffd5b7f4e487b71000000000000000000000000000000000000000000000000000000005f52604160045260245ffd5b611ccf82611b23565b810181811067ffffffffffffffff82111715611cee57611ced611c99565b5b80604052505050565b5f611d00611a3c565b9050611d0c8282611cc6565b919050565b5f67ffffffffffffffff821115611d2b57611d2a611c99565b5b611d3482611b23565b9050602081019050919050565b828183375f83830152505050565b5f611d61611d5c84611d11565b611cf7565b905082815260208101848484011115611d7d57611d7c611c95565b5b611d88848285611d41565b509392505050565b5f82601f830112611da457611da3611c91565b5b8135611db4848260208601611d4f565b91505092915050565b5f5f60408385031215611dd357611dd2611a45565b5b5f611de085828601611a93565b925050602083013567ffffffffffffffff811115611e0157611e00611a49565b5b611e0d85828601611d90565b9150509250929050565b5f8115159050919050565b611e2b81611e17565b82525050565b5f602082019050611e445f830184611e22565b92915050565b611e5381611b7a565b82525050565b5f602082019050611e6c5f830184611e4a565b92915050565b611e7b81611b7a565b8114611e85575f5ffd5b50565b5f81359050611e9681611e72565b92915050565b5f5f5f60608486031215611eb357611eb2611a45565b5b5f84013567ffffffffffffffff811115611ed057611ecf611a49565b5b611edc86828701611d90565b9350506020611eed86828701611a93565b9250506040611efe86828701611e88565b9150509250925092565b5f60208284031215611f1d57611f1c611a45565b5b5f82013567ffffffffffffffff811115611f3a57611f39611a49565b5b611f4684828501611d90565b91505092915050565b5f82825260208201905092915050565b5f611f6982611afb565b611f738185611f4f565b9350611f83818560208601611b15565b611f8c81611b23565b840191505092915050565b611fa081611a6c565b82525050565b5f6060820190508181035f830152611fbe8186611f5f565b9050611fcd6020830185611f97565b611fda6040830184611e4a565b949350505050565b5f81519050919050565b5f82825260208201905092915050565b5f819050602082019050919050565b5f6120168383611b33565b905092915050565b5f602082019050919050565b5f61203482611fe2565b61203e8185611fec565b93508360208202850161205085611ffc565b805f5b8581101561208b578484038952815161206c858261200b565b94506120778361201e565b925060208a01995050600181019050612053565b50829750879550505050505092915050565b5f6020820190508181035f8301526120b5818461202a565b905092915050565b5f6020820190506120d05f830184611f97565b92915050565b5f5f604083850312156120ec576120eb611a45565b5b5f6120f985828601611e88565b925050602061210a85828601611e88565b9150509250929050565b5f606083015f8301518482035f86015261212e8282611b33565b91505060208301516121436020860182611b6b565b5060408301516121566040860182611b83565b508091505092915050565b5f6020820190508181035f8301526121798184612114565b905092915050565b5f5f6040838503121561219757612196611a45565b5b5f83013567ffffffffffffffff8111156121b4576121b3611a49565b5b6121c085828601611d90565b92505060206121d185828601611e88565b9150509250929050565b7f4e487b71000000000000000000000000000000000000000000000000000000005f52602260045260245ffd5b5f600282049050600182168061221f57607f821691505b602082108103612232576122316121db565b5b50919050565b7f4e487b71000000000000000000000000000000000000000000000000000000005f52603260045260245ffd5b5f81905092915050565b5f61227982611afb565b6122838185612265565b9350612293818560208601611b15565b80840191505092915050565b5f6122aa828461226f565b915081905092915050565b7f5765627369746520616c726561647920726567697374657265640000000000005f82015250565b5f6122e9601a83611f4f565b91506122f4826122b5565b602082019050919050565b5f6020820190508181035f830152612316816122dd565b9050919050565b5f819050815f5260205f209050919050565b5f6020601f8301049050919050565b5f82821b905092915050565b5f600883026123797fffffffffffffffffffffffffffffffffffffffffffffffffffffffffffffffff8261233e565b612383868361233e565b95508019841693508086168417925050509392505050565b5f819050919050565b5f6123be6123b96123b484611b7a565b61239b565b611b7a565b9050919050565b5f819050919050565b6123d7836123a4565b6123eb6123e3826123c5565b84845461234a565b825550505050565b5f5f905090565b6124026123f3565b61240d8184846123ce565b505050565b5b81811015612430576124255f826123fa565b600181019050612413565b5050565b601f821115612475576124468161231d565b61244f8461232f565b8101602085101561245e578190505b61247261246a8561232f565b830182612412565b50505b505050565b5f82821c905092915050565b5f6124955f198460080261247a565b1980831691505092915050565b5f6124ad8383612486565b9150826002028217905092915050565b6124c682611afb565b67ffffffffffffffff8111156124df576124de611c99565b5b6124e98254612208565b6124f4828285612434565b5f60209050601f831160018114612525575f8415612513578287015190505b61251d85826124a2565b865550612584565b601f1984166125338661231d565b5f5b8281101561255a57848901518255600182019150602085019450602081019050612535565b868310156125775784890151612573601f891682612486565b8355505b6001600288020188555050505b505050505050565b5f6040820190508181035f8301526125a48185611f5f565b90506125b36020830184611e4a565b9392505050565b7f57656273697465206e6f7420666f756e640000000000000000000000000000005f82015250565b5f6125ee601183611f4f565b91506125f9826125ba565b602082019050919050565b5f6020820190508181035f83015261261b816125e2565b9050919050565b7f4f6e6c792077656273697465206f776e65722063616e2072656d6f76650000005f82015250565b5f612656601d83611f4f565b915061266182612622565b602082019050919050565b5f6020820190508181035f8301526126838161264a565b9050919050565b5f815461269681612208565b6126a08186612265565b9450600182165f81146126ba57600181146126cf57612701565b60ff1983168652811515820286019350612701565b6126d88561231d565b5f5b838110156126f9578154818901526001820191506020810190506126da565b838801955050505b50505092915050565b5f612715828461268a565b915081905092915050565b7f4e487b71000000000000000000000000000000000000000000000000000000005f52601160045260245ffd5b5f61275782611b7a565b915061276283611b7a565b925082820390508181111561277a57612779612720565b5b92915050565b5f8154905061278e81612208565b9050919050565b5f819050815f5260205f209050919050565b8181036127b557505061288a565b6127be82612780565b67ffffffffffffffff8111156127d7576127d6611c99565b5b6127e18254612208565b6127ec828285612434565b5f601f831160018114612819575f8415612807578287015490505b61281185826124a2565b865550612883565b601f19841661282787612795565b96506128328661231d565b5f5b8281101561285957848901548255600182019150600185019450602081019050612834565b868310156128765784890154612872601f891682612486565b8355505b6001600288020188555050505b5050505050505b565b7f4e487b71000000000000000000000000000000000000000000000000000000005f52603160045260245ffd5b5f6020820190508181035f8301526128d18184611f5f565b905092915050565b5f6128e382611b7a565b91507fffffffffffffffffffffffffffffffffffffffffffffffffffffffffffffffff820361291557612914612720565b5b600182019050919050565b7f4f6e6c792077656273697465206f776e65722063616e207570646174652070615f8201527f7977616c6c000000000000000000000000000000000000000000000000000000602082015250565b5f61297a602583611f4f565b915061298582612920565b604082019050919050565b5f6020820190508181035f8301526129a78161296e565b905091905056fea264697066735822122025377e4921d8ba7146f5d3ca03dff3b85a9be227b103c408412ab0ca2c84ddd064736f6c634300081e0033","linkReferences":{}},"methodIdentifiers":{"getAllWebsiteUrls()":"dfcf6881","getAllWebsites()":"e974cd47","getTotalWebsiteCount()":"c2e00022","getWebsite(string)":"b4ed40a5","getWebsiteCount(address)":"25eda8dc","getWebsiteOwner(string)":"91fc3c1e","getWebsitePaywall(string)":"cda20d94","getWebsiteUrls(address)":"76a5e745","getWebsites(address)":"04de43d5","getWebsitesByPaywallRange(uint256,uint256)":"9e8c5830","hasWebsite(address,string)":"1f9528c2","isWebsiteRegistered(string)":"62eef9e7","registerWebsite(string,address,uint256)":"52dc726e","removeWebsite(string)":"74edc634","updatePaywall(string,uint256)":"dadd53da","websiteRegistry(string)":"6728e896"},"id":0}